:020000040000FA
:100000007803001071010000790100007B010000FD
:100010007D0100007F010000810100000000000060
:10002000000000000000000000000000830100004C
:100030008501000000000000870100008901000028
:100040008B0100008B0100008B0100008B01000080
:100050008B0100008B0100008B0100008B01000070
:100060008B0100008B0100008B0100008B01000060
:100070008B0100008B0100008B0100008B01000050
:100080008B0100008B0100008B0100008B01000040
:100090008B0100008B0100008B0100008B01000030
:1000A0008B0100008B0100008B0100008B01000020
:1000B0008B0100008B0100008B0100008B01000010
:1000C0008B0100008B0100008B01000000F002F8A2
:1000D00000F03FF80AA090E8000C82448344AAF1A3
:1000E0000107DA4501D100F034F8AFF2090EBAE8A1
:1000F0000F0013F0010F18BFFB1A43F0010318475C
:10010000F048000010490000103A24BF78C878C1B8
:10011000FAD8520724BF30C830C144BF04680C600D
:10012000704700000023002400250026103A28BF55
:1001300078C1FBD8520728BF30C148BF0B60704759
:10014000642902F0A586002070471FB51FBD10B5B9
:1001500010BD02F0DDFF1146FFF7F7FF02F055F882
:1001600002F0FBFF03B4FFF7F2FF03BC02F0FCFF59
:100170000948804709480047FEE7FEE7FEE7FEE73B
:10018000FEE7FEE7FEE7FEE7FEE7FEE70448054977
:10019000034A054B70470000E52B0000CD0000002E
:1001A000780100107803001078010010F0B50446C3
:1001B0000B461546194660003B4A102901D31039F9
:1001C000401C52F820604FEA410C032707FA0CF755
:1001D000BE4342F8206052F820604F0005FA07F74E
:1001E0003E4342F82060F0BDF0B504460B4615468C
:1001F000194660002C4A4032102901D31039401CA6
:1002000052F820604FEA410C032707FA0CF7BE436F
:1002100042F8206052F820604F0005FA07F73E438D
:1002200042F82060F0BD30B50B461F496831012A05
:1002300007D151F8204001259D402C4341F8204032
:1002400006E051F8204001259D40AC4341F8204094
:1002500030BD012806D11449896A41F00801124ACB
:10026000916206E028B91049896A21F008010E4A16
:1002700091627047012800D1052201B90A220A4B78
:10028000DA67704710B50446A27861782078FFF7E6
:100290008DFFE27861782078FFF7A6FF22796178F8
:1002A0002078FFF7C0FF10BD00C002400FB41CB59E
:1002B000074B06AA7B4469460090059802F00DFFA3
:1002C0000020694600F014F81CBC5DF814FB000027
:1002D0003900000070477047704710B502F010FFFA
:1002E000006810BD10B5044602F00AFF046010BD9E
:1002F0000A6802F8010B0A6070477047FFFFFFFFB2
:100300000146F848814201D100207047F6488142F9
:1003100001D10120F9E7F548814201D10220F4E73B
:100320004FF0FF30F1E70146202008600820886187
:1003300000BF086810F0080FFBD0202088614868D3
:1003400000F0F8007047016811F0200F01D0202163
:1003500081611021016008218161704702461068A7
:1003600010F0200F01D020209061C8B290600820CA
:10037000906100BF106810F0080FFBD0506800F0CB
:10038000F80070470346012A02D10420186001E0FA
:10039000042098610820986100BF186810F0080FC9
:1003A000FBD098680870586800F0F800704770B586
:1003B00004460E46CB48844205D0CB48844202D046
:1003C000CA48844200D103E0E021C94801F06DFF32
:1003D000C448844205D10E2002F005FBB0FBF6F5BF
:1003E00010E0C148844205D1262002F0FCFAB0FB9F
:1003F000F6F507E0BD48844204D1342002F0F3FA58
:10040000B0FBF6F5680820612069281A606170BDAC
:1004100070B504460D46B348844205D0B2488442C4
:1004200002D0B248844200D104E04FF48471B04855
:1004300001F03BFFAB48844208D10121802002F04B
:10044000EFFA02210E2002F089FA18E0A648844251
:1004500008D10121C80402F0E3FA0221262002F0AB
:100460007DFA0CE0A148844208D10121880602F0FF
:10047000D7FA0221342002F071FA00E070BD29465B
:100480002046FFF794FF6420A06100BFF6E710B597
:1004900004469448844205D09348844202D093484D
:1004A000844200D104E04FF49C71914801F0FDFEBC
:1004B0004020A0618B48844204D10021802002F0BA
:1004C000AFFA10E08848844205D100214FF40020A3
:1004D00002F0A6FA07E08548844204D100214FF0DB
:1004E000806002F09DFA10BD70B504460D460DB156
:1004F000012D00D104E040F259117D4801F0D5FEF4
:100500007848844205D07848844202D077488442B3
:1005100000D104E04FF4AD71754801F0C6FE012D25
:1005200002D14020206001E04020A06170BD70B584
:1005300004460D46A5B16B48844203D10A2000F061
:1005400062FC21E06848844203D10B2000F05BFC90
:100550001AE06648844217D10C2000F054FC13E0E6
:100560006048844203D10A2000F059FC0CE05E4848
:10057000844203D10B2000F052FC05E05B4884422A
:1005800002D10C2000F04BFC70BD2DE9F041054676
:100590002846FFF7B5FE0646564850F836406868CC
:1005A00000F0F8076762F82F03D10820A861BDE8C2
:1005B000F081504800EBC6004068002857D1202F3A
:1005C00048D006DC082F0BD0102F0AD0182F4CD1A2
:1005D00015E0282F14D0302F3DD0382F45D13FE0E3
:1005E00000BF2020A861606838B1A06828B12068E9
:1005F0004000A8600820A86100E012E036E000BFDB
:10060000D4E9021088420BD2606848B1E1686068A2
:10061000405CA860E068401CE0600820A86118E029
:1006200000BF0120334901EBC6014860606958B141
:10063000206948B1A06830B1606820B120202860EE
:100640000C20A86105E031E0606A40F480606062DF
:1006500098E00BE000BF606A40F40070606282E0E6
:10066000606A40F48070606200BF7CE097E02148DF
:1006700000EBC60040680128F8D1402F24D006DCEA
:10068000082F0BD0102F0AD0382F6BD165E0482FE0
:100690005ED0502F30D0582F64D147E000BF2020CB
:1006A000A861206950B1606940B100BF0121206894
:1006B00001EB4000A8600820A86104E0606A40F4F3
:1006C000806060625EE069E0D4E90501401E81421D
:1006D00002D20420286001E00420A8610820A8615B
:1006E0005CE0000000C0014000C0054000000A407E
:1006F000D048000084000010206950B1D4E90510F2
:10070000884206D2A868A26921698854A069401C61
:10071000A061D4E90501401E814202D20420286074
:1007200001E00420A8610820A86137E0206950B1E9
:10073000D4E90510884206D2A868A26921698854C4
:10074000A069401CA061606A40F48060606219E0AA
:10075000606A40F40070606205E0606A40F4807096
:10076000606200BF00BFD4E90710884209D20020B0
:10077000E060202028600C20A861206A401C2062D4
:100780000BE000BF00212846FFF7D1FE2846FFF707
:10079000DAFD0120FE4941F8260000BF00BF00BF7E
:1007A00005E72DE9F04104462046FFF7A9FD804604
:1007B000F84850F83850606800F0F806AE61F82E3E
:1007C00003D10820A061BDE8F08116F0070F68D1C1
:1007D000F0100C38142864D2DFE800F00F631063C7
:1007E000152816292C4763485A6363636363630AB9
:1007F000042020600820A0615FE000BF042020608A
:100800000820A06159E000BFD5E90410884208D251
:10081000E86830B1A0686A69E96888546869401C72
:100820006861042020600820A06146E000BF082025
:10083000A06142E000212046FFF779FE0820A06178
:1008400047030FE0206810F0080F04D00121204674
:10085000FFF76DFE07E07F1E27B9A86940F48060AE
:10086000A8611FE0EEE700BF27E000BFD5E9011057
:10087000884208D2286830B1A9682868405CA06026
:10088000A868401CA860042020600820A06114E033
:10089000042020600820A061A86940F48060A8615D
:1008A00000E000BF00212046FFF741FE2C20A061A0
:1008B0000120B94941F8280000BF00BF00BF82E70E
:1008C0002DE9F84306460C461746D4F80480D4F8C0
:1008D00010900020E060A0616062002F7ED1206255
:1008E00000BFD4F80480D4F810900020E060A0612C
:1008F00000253046FFF717FD0546082D0BD0102DBB
:1009000009D0206A401C2062D4E90710884201D92E
:100910006562ABE0E5E7A068A0B3606890B32078BB
:100920004006010E3046FFF719FD0546182D0BD085
:10093000206A401C2062D4E90710884203D945F49C
:100940000070606292E0CCE718E098F80010304642
:10095000FFF704FD0546282D0BD0206A401C2062BD
:10096000D4E90710884203D945F4007060627DE045
:10097000B7E708F10108E068401CE060D4E9021024
:100980008842E2D3A068B8B16068A8B1606998B144
:10099000206988B13046FFF7C6FC0546082D0BD00C
:1009A000102D09D0206A401C2062D4E9071088422B
:1009B00001D965625AE094E76069002850D0206947
:1009C00000284DD02078012202EB4000C1B2304611
:1009D000FFF7C4FC0546402D0DD000E04BE0206A37
:1009E000401C2062D4E90710884203D945F4007006
:1009F00060623BE075E72FE0D4E90501401E8142CB
:100A000011D2012269463046FFF7BCFC0546502D45
:100A10001BD0206A401C2062D4E90710884201D90B
:100A2000656223E05DE7002269463046FFF7AAFCD5
:100A30000546582D09D0206A401C2062D4E90710D1
:100A4000884201D9656211E04BE79DF8000009F882
:100A5000010BA069401CA061D4E905108842CBD3EA
:100A60003046FFF770FC0120BDE8F8833046FFF701
:100A70006AFC0020F8E7012F1AD13046FFF740FC4E
:100A8000C0B2009043489DF8001040F8314000206B
:100A900040499DF8002001EBC20148600820B06188
:100AA0002020306001213046FFF741FD0120DBE7C7
:100AB0000020D9E72DE9F84F04460D461646D5F833
:100AC0000090D5F80CA00020A8606861A861002EF5
:100AD0005DD1042020602820A06100200090834682
:100AE00072E0206810F0080F65D000200090606868
:100AF00000F0F80717F0070F59D1F8100C38142838
:100B000055D2DFE800F00F541054152716282B3269
:100B100054334B5454545454540A04202060082035
:100B2000A06147E000BF042020600820A06141E0F0
:100B300000BFD5E90410884207D2E86828B1A06850
:100B40000AF8010B6869401C6861042020600820D5
:100B5000A0612FE000BF0820A0612BE00820A06169
:100B6000012000904FF0000B24E000BFD5E90110F8
:100B7000884207D2286828B119F8010BA060A8683C
:100B8000401CA860042020600820A06112E029E039
:100B90009C00001084000010A800001004202060B9
:100BA0000820A061012000904FF0000B02E0082017
:100BB000A06112E008E0009830B158460BF1010B3B
:100BC000B0F5803F00D900E08BE70420A06147F436
:100BD0008060A8610120BDE8F88F0420A061AF61AA
:100BE0000020F8E7012E15D12046FFF789FB80464B
:100BF0008F4840F8385001208D4901EBC80148600A
:100C0000042020602820A06101212046FFF78FFCEE
:100C10000120E0E70020DEE770B504460D46854878
:100C2000844205D08448844202D08448844200D162
:100C300004E040F2A141824801F037FB2878002807
:100C400003DB2878032800DC04E040F2A2417C4862
:100C500001F02BFBA87810B1A878012800D104E09E
:100C600040F2A341764801F020FBA878012800D18A
:100C700000E00020697840EA4100C6B2287830B12F
:100C800001280AD002280ED0032818D111E0E6600E
:100C9000E87800F0FE00206311E02662E87800F0BA
:100CA000FE0060630BE06662E87800F0FE00A0637F
:100CB00005E0A662E87800F0FE00E06300BF00BF38
:100CC00070BD70B504460D4616465A48844205D09C
:100CD0005948844202D05948844200D104E040F28D
:100CE000D541574801F0E1FA022D00D000BF00BF06
:100CF0000EB1012E00D104E040F2D741504801F07E
:100D0000D4FA012E03D1E0692843E06104E0E069F0
:100D10000721A9430840E06170BD70B504460D4647
:100D20004448844205D04448844202D04348844227
:100D300000D104E040F2F141414801F0B6FA0DB1B2
:100D4000012D00D104E040F2F2413D4801F0ADFA3E
:100D5000012D08D1E06940F00100E061042020602D
:100D60002820A06105E0E06900F00600E0612C2089
:100D7000A06100203349086070BD10B504462D48BD
:100D8000844205D02C48844202D02C48844200D1B1
:100D900004E040F214512A4801F087FAE06AC0B238
:100DA00010BD30B50346002008249C61DC6A254D47
:100DB0002D684C55234C2468641C224D2C602C4615
:100DC0002468944200D3012030BD70B50546284602
:100DD000FFF796FA04461C4850F8246000201A4990
:100DE00041F82400304670BD70B505462846FFF72F
:100DF00087FA0446154850F824600020134941F84A
:100E00002400304670BD00F01F02012191404209CC
:100E10004FF0E02303EB8202C2F80011704700F0AC
:100E20001F02012191400A4A430942F823107047EA
:100E30008400001000C0014000C0054000000A40CE
:100E4000D0480000000000109C000010A800001016
:100E500080E100E02DE9F04F8BB004468946002088
:100E60000990FE48844204D1062001F0BCFD0746EB
:100E700016E0FB48844204D1082001F0B4FD074687
:100E80000EE0F848844204D1302001F0ACFD074662
:100E900006E0F548844203D1322001F0A4FD074664
:100EA0004FF0FF3B00200790069000252E464FF0A4
:100EB00001084DE00020089040E00898404400FB05
:100EC00009FC0020010741EA171138070022A0FBA6
:100ED000083E01FB08E100FB02106246CDE900304C
:100EE0000023DDE9000101F033FFCDE9040104989E
:100EF0000390DDF814A00398B0F1004F04D90398D3
:100F0000404203900AF1010ABAF1000F02D0BAF58B
:100F1000803F00D90FE0039858450BD2DDF80CB0A4
:100F20000026554608980790CDF81880BBF1000FB1
:100F300000D106E000BF0898401C08900898404582
:100F4000BBD300BFBBF1000F00D104E008F10108E2
:100F5000B8F10F0FAED900BF002185EA0100714042
:100F6000084302D10BB0BDE8F08F3809069900FBA9
:100F700001FC0846079908440021A0FB052301FB5A
:100F8000053100FB06100346CDE900206046002134
:100F900001F0DEFE02900298814503D90298A9EB88
:100FA000000B02E00298A0EB090B64200BFB00F0A1
:100FB000B0FBF9FBBBF1030F32D2A948844216D132
:100FC000207B40F080002073280A40EA06602071F0
:100FD0002570207B00F07F002073F021069801EA45
:100FE0000010079901F00F010843A06216E0207B72
:100FF00040F080002073280A40EA066020712570C6
:10100000207B00F07F002073F021069801EA001099
:10101000079901F00F01084384F828000120099086
:1010200009989FE770B504460D468C48844208D065
:101030008B48844205D08B48844202D08A4884423F
:1010400000D103E0C921894801F02FF9687940B146
:101050006879012805D06879022802D068790328C8
:1010600000D103E0CA21814801F01FF9A87910B12D
:10107000A879012800D103E0CB217C4801F015F9C3
:10108000287958B12879012808D02879022805D074
:101090002879032802D02879042800D103E0CC2144
:1010A000724801F002F96D48844203D10121082001
:1010B00001F0B6FC6A48844203D10121102001F0FE
:1010C000AFFC6848844203D10121080601F0A8FC66
:1010D0006548844203D10121480601F0A1FC604823
:1010E000844221D1072020720020207200E026785F
:1010F000207D10F0010FFAD1802084F8300000BF6D
:10110000207D10F0200FFBD0002084F830006060BC
:1011100020732062207484F84C0084F8540084F812
:101120005000267E267D18E00720207200202072C5
:1011300000E02678207D10F0010FFAD1802084F89D
:10114000300000BF207D10F0200FFBD0002084F87D
:101150003000606020732062267D4348844202D1C3
:10116000002084F8240020462968FFF773FE3C48DD
:10117000844203D1207B00F0C00602E0207B00F017
:10118000C006687930B1012806D0022807D00328AC
:1011900008D108E000BF09E046F0010606E046F08D
:1011A000020603E000BF46F0030600BF00BF287937
:1011B000C0B146F008062879012806D0022806D0DA
:1011C000032807D004280BD107E000BF09E046F050
:1011D000100606E046F0200603E046F0300600E088
:1011E00000BF00BFA87928B1012802D146F004064B
:1011F00001E000BF00BF00BF1948844201D126733F
:1012000000E0267370BD70B504460D461348844255
:1012100008D01348844205D01248844202D01248B4
:10122000844200D104E040F2EA31104801F03DF878
:101230000DB1012D00D104E040F2EB310B4801F07B
:1012400034F8012D1BD10648844211D194F83000A6
:1012500040F0800084F830001FE0000000C0004033
:10126000000001400080094000C00940184900000A
:1012700094F8300040F0800084F830000DE0FD4824
:10128000844205D194F83000002084F8300004E056
:1012900094F83000002084F8300070BD10B504468A
:1012A000F548844208D0F348844205D0F34884428C
:1012B00002D0F348844200D104E040F29511F14895
:1012C00000F0F3FF00212046FFF79DFFEA4884422B
:1012D00003D10021082001F0A3FBE648844203D19A
:1012E0000021102001F09CFBE448844204D100213D
:1012F0004FF0807001F094FBE148844204D100215A
:101300004FF0007001F08CFB10BD4FF416510160DE
:1013100003214171002101718171704770B504464C
:101320000D46D548844208D0D248844205D0D348DF
:10133000844202D0D248844200D104E040F2D91164
:10134000D04800F0B2FFCB48844201D1257000E0C4
:10135000257070BD10B50446C748844208D0C54802
:10136000844205D0C548844202D0C548844200D199
:1013700004E04FF4F971C34800F097FFBD48844280
:1013800001D1207810BD2078FCE72DE9FF5F804671
:101390008A46934657465C460398012824D1002587
:1013A0001FE04FF0FF3905E0B9F1000F00D106E072
:1013B000A9F1010998F8140010F0200FF4D000BF33
:1013C000B9F1000F00D10EE0102607E017F8011B5D
:1013D0004046FFF7A3FF761E641E6D1C0EB1002C65
:1013E000F4D1002CDDD117E0002512E098F81400AC
:1013F00010F0200F00D10EE0102607E017F8011BB7
:101400004046FFF78BFF641E761E6D1C0EB1002C4C
:10141000F4D1002CEAD100BF284604B0BDE8F09F0B
:101420002DE9F05F0746894692469B464E46554653
:10143000BBF1010F1DD1002418E04FF0FF3805E08B
:10144000B8F1000F00D105E0A8F10108387D10F0D7
:10145000010FF5D000BFB8F1000F00D108E0384609
:10146000FFF778FF06F8010B6D1E641C002DE4D118
:1014700010E000240BE0387D10F0010F00D108E0EF
:101480003846FFF767FF06F8010B641C6D1E002D40
:10149000F1D100BF2046BDE8F09F10B50446764864
:1014A000844208D07348844205D07448844202D0F4
:1014B0007348844200D104E04FF42171714800F078
:1014C000F4FE6C48844204D1207B40F0400020733D
:1014D00003E0207B40F04000207310BD2DE9F04177
:1014E00004460D4617466448844208D06148844249
:1014F00005D06248844202D06148844200D104E0B1
:1015000040F2AB215F4800F0D0FE0FB1012F00D1B7
:1015100004E04FF42B715B4800F0C7FE072D15D295
:10152000DFE805F00406080A0C0E110001260DE0A4
:1015300002260BE0042609E0082607E0802605E0E5
:101540004FF4807602E04FF4007600BF00BF4948B8
:10155000844213D15DB1012D09D0022D07D0052D94
:1015600005D0062D03D0032D01D0042D00D114E0A9
:101570004FF43271434800F098FE0EE03DB1012D6A
:1015800005D0022D03D0052D01D0062D00D104E099
:101590004FF433713B4800F088FE012F0AD13548E3
:1015A000844203D160683043606013E06068304378
:1015B00060600FE02F48844206D1606840F28F31AE
:1015C000B1430840606005E0606840F20731B14314
:1015D00008406060BDE8F08110B5044626488442AA
:1015E00008D02448844205D02448844202D02448AC
:1015F000844200D104E040F2FA21224800F055FE76
:101600001C48844201D1007D10BD207DFCE710B54F
:1016100004461948844208D01648844205D0174829
:10162000844202D01648844200D104E040F21131D5
:10163000144800F03AFEA06840F2CF31084010BDD7
:101640000146087D10F0400F01D0002070470120B6
:10165000FCE770B506460C4600250748864208D0D0
:101660000448864205D00548864202D00448864296
:101670000AD10EE00000014000C000400080094097
:1016800000C009401849000040F23731F84800F026
:101690000CFEE07840B1E078012805D0E07802281F
:1016A00002D0E078032800D104E04FF44E71F048F6
:1016B00000F0FBFDA07810B1A078012800D104E073
:1016C00040F23931EA4800F0F0FD207810B120787E
:1016D000012800D104E040F23A31E54800F0E5FD90
:1016E000607810B16078012800D104E040F23B310D
:1016F000DF4800F0DAFD45F00105E07830B101285F
:1017000006D0022807D0032808D108E000BF09E06E
:1017100045F0400506E045F0800503E000BF45F0D8
:10172000C00500BF00BF6078012801D145F0040565
:101730002078012801D145F00205A078012801D1C7
:1017400045F00805CB48864203D105F0CF00307242
:1017500002E005F0CF00307270BD00218170C170D1
:1017600001210170417070472DE9F04104460F4698
:101770001546C148844208D0BE48844205D0BF48BF
:10178000844202D0BE48844200D104E040F292314B
:10179000B74800F08AFD0DB1012D00D104E040F200
:1017A0009331B34800F081FD0026012D09D138782E
:1017B000012801D146F002067878012801D146F0CF
:1017C0000406AC48844215D1012D10D1207B40F095
:1017D00080002073002020702071207B20F080008A
:1017E00020731020A06246F00100206218E0002063
:1017F000206215E0012D11D1207B40F08000207384
:10180000002020702071207B20F0800020731020A9
:1018100084F8280046F00100206201E000202062E8
:10182000BDE8F08170B504460D469348844208D067
:101830009048844205D09148844202D09048844226
:1018400000D104E040F2D331894800F02EFD8948F0
:10185000844203D1206A2843206202E0206A2843A0
:10186000206270BD70B504460D468548844200D1A3
:1018700004E040F214417E4800F017FD0DB1012D47
:1018800000D104E040F21541794800F00EFD012D31
:1018900006D194F8240040F0020084F8240006E009
:1018A0002DB994F8240000F03D0084F8240070BDA8
:1018B00070B504460D467248844200D104E040F2FF
:1018C0002C416B4800F0F1FC0DB1012D00D104E07A
:1018D00040F22D41664800F0E8FC012D06D194F855
:1018E000240040F0010084F8240005E094F824006E
:1018F00000F03E0084F8240070BD2DE9F04105465B
:101900000C465F48854200D104E040F24D41584802
:1019100000F0CBFC6CB1012C0BD0022C09D0032CB5
:1019200007D0042C05D0052C03D0062C01D0072CA1
:1019300000D104E040F24E414D4800F0B6FC600793
:10194000870E95F8240020F0380647F0040006437F
:1019500006F03F0085F82400BDE8F0812DE9F04154
:1019600004460D46164600274248844200D104E052
:1019700040F26D413E4800F098FC0DB1012D00D1C0
:1019800004E040F26E413A4800F08FFC0EB1012EA7
:1019900000D104E040F26F41354800F086FC15B1FB
:1019A000012D04D101E0012702E0022700E000BF81
:1019B00000BF012E03D1207C3843207404E0207C3A
:1019C000F321B94308402074BDE8F0812DE9F041CE
:1019D00004460D4617462748844200D104E040F2F1
:1019E0009541234800F061FC1DB1012D01D0022D6D
:1019F00000D104E040F296411D4800F056FC0FB1C2
:101A0000012F00D104E040F29741194800F04DFC4D
:101A100025B1012D04D0022D06D103E0102604E0EB
:101A2000402602E0802600E000BF00BF012F03D166
:101A3000207C3043207404E0207CF321B143084033
:101A40002074BDE8F08110B504460A48844200D1F4
:101A500004E04FF49861064800F027FC207E10BD9A
:101A600070B506460C46034886420BD10FE00000D5
:101A7000184900000000014000C0004000800940FB
:101A800000C0094040F2D441684800F00EFCA07844
:101A900010B1A078012800D104E040F2D54163489C
:101AA00000F003FCE07810B1E078012800D104E0F8
:101AB00040F2D6415D4800F0F8FBE079FF2800DAFB
:101AC00004E040F2D741594800F0EFFB607910B1D3
:101AD0006079012800D104E04FF49B61534800F085
:101AE000E4FB207910B12079012800D104E040F214
:101AF000D9414E4800F0D9FBA079FF2800DA04E074
:101B000040F2DA41494800F0D0FB207810B120784B
:101B1000012800D104E040F2DB41444800F0C5FB5D
:101B2000607810B16078012800D104E040F2DC4117
:101B30003E4800F0BAFB0025E07801280ED145F0C0
:101B400010056079012801D145F020052079012890
:101B500001D145F00805E07986F854002078012885
:101B600001D145F00105A078012804D145F0040514
:101B7000A07986F85000607808B945F0020505F0B4
:101B80003F0086F84C00307B40F03800307370BD69
:101B9000012906D190F84C2022F0020280F84C2056
:101BA00005E090F84C2042F0020280F84C2070478B
:101BB0002DE9F0470446894692461F469FB1257B92
:101BC000A84628F0100884F80C80012352464946A4
:101BD0002046FFF7DAFB064600BF207D10F0400FDD
:101BE000FBD025730BE00123524649462046FFF700
:101BF000CCFB064600BF207D10F0400FFBD03046E6
:101C0000BDE8F08713B5044601231A4601A9204612
:101C1000FFF7CEFF1CBD70B504460D4616460023E7
:101C2000324629462046FFF7C3FF70BD1849000021
:101C300010B500210AE0002205E0002300E05B1C53
:101C4000642BFCD3521C642AF7D3491C8142F2D383
:101C500010BD10B55320FE490860022088600020A6
:101C6000086148610220C8613120FA4908700B20E0
:101C700048700846F64948600022F748FEF720FE03
:101C80002D20F4490870082048700846F049486043
:101C90000022F148FEF714FE2E20EE490870802045
:101CA00048700846EA4948600022EB48FEF708FE03
:101CB0002C20E84908700E2048700846E449486026
:101CC0000022E548FEF7FCFD10BD10B55320E049A9
:101CD0000860022088600020086148610220C86115
:101CE0001E20DC490870002048700846D84948602A
:101CF0000022D948FEF7E4FD1F20D64908700620CF
:101D000048700846D24948600022D348FEF7D8FD03
:101D10002020D0490870062048700846CC49486009
:101D20000022CD48FEF7CCFD10BD10B55320C849A8
:101D300008603220C74908700846C549486001203C
:101D40008860C648086102204861C8610022C24814
:101D5000FEF7B6FDC1480078C049497840EA012045
:101D600000B210BD10B55320B94908603420B949FC
:101D700008700846B649486001208860B848086184
:101D800002204861C8610022B348FEF799FDB448BB
:101D90000078B349497840EA012000B210BD10B57F
:101DA0005320AB4908603620AA4908700846A84964
:101DB000486001208860AB48086102204861C86122
:101DC0000022A548FEF77CFDA6480078A549497881
:101DD00040EA012000B210BD10B569209C4908609E
:101DE000022088600020086148610220C86120202C
:101DF000984908700F2048700846954948600022AD
:101E00009548FEF75DFD212092490870002048703A
:101E100008468F49486000228F48FEF751FD222076
:101E20008C4908700820487008468949486000229B
:101E30008948FEF745FD2320864908700020487038
:101E400008468349486000228348FEF739FD2E206A
:101E5000804908700020487008467D49486000228B
:101E60007D48FEF72DFD10BD10B56920784908604A
:101E70002C20784908700846754948600120886020
:101E80007648086102204861C86100227248FEF766
:101E900017FD724800787149497840EA012000B284
:101EA00010BD10B5044677206949086069490C7077
:101EB000084667494860012088606B480861032034
:101EC00048610220C86100226348FEF7F9FC6648B9
:101ED00040786549097840EA012000B210BD10B58C
:101EE000AA20FFF7DEFF61490860AC20FFF7D9FFA9
:101EF0005F490860AE20FFF7D4FF5E490860B0205C
:101F0000FFF7CFFF5C490860B220FFF7CAFF5B49CB
:101F10000860B420FFF7C5FF59490860B620FFF7F5
:101F2000C0FF58490860B820FFF7BBFF564908605A
:101F3000BA20FFF7B6FF55490860BC20FFF7B1FF94
:101F400053490860BE20FFF7ACFF5249086010BD3E
:101F500010B50024F4203F4948702E2008707720E7
:101F60003B4908603B4848600220886000200861C7
:101F700048610220C86100223748FEF7A1FC4FF4F7
:101F8000FA60FFF755FEF620FFF78BFF84B220467C
:101F900010BD10B50024F4202E494870342008707C
:101FA00077202B4908602B48486002208860002079
:101FB000086148610220C86100222748FEF780FCC2
:101FC000CB20FFF735FEF62022490870084620494D
:101FD0004860012088602448086103204861C86186
:101FE00000221D48FEF76CFC1F48007800041E49C3
:101FF000497840EA01201C4989780843040A2046B0
:1020000010BD2DE9F04F85B004460022224B10464A
:102010004FF0804101F028F9CDE900011748006830
:1020200002F07BF80746DDE9002301F0EFFE0546EC
:102030000E4613490968601A02F06FF82A463346C3
:10204000CDE9020102F0BCF8824602F037F825E043
:10205000E80000100600001000C001400800001059
:102060000A0000100C0000100E00001014000010F8
:10207000180000101C0000102000001024000010A8
:10208000280000102C000010300000103400001058
:10209000380000103C00001000002E4081468449AA
:1020A000096809EB010002F038F805460E460022E7
:1020B000804B10464FF0804101F0D6F80746884625
:1020C0007D48006802F029F882463A46434602F00D
:1020D00077F82A463346CDE9000101F097FECDE9B5
:1020E000020101F0EBFF0490049848447349086032
:1020F0000022734B1046990201F0B6F882468B46D7
:102100006E480068083002F008F8054652465B4603
:1021100001F07CFE074601F0D1FF00B205B0BDE83A
:10212000F08F2DE9F0430546DFF89081D8F8008064
:10213000A8F57A6303FB03F8DFF88891D9F80090DB
:1021400008FB09F84FEAE851DFF87C81D8F80080F5
:1021500008FB03F84FEAE8228E18DFF87081D8F800
:10216000008006EB880808F102084FEAA80CDFF8A7
:102170006081D8F8008008FB03F84FEA683103FB60
:1021800003F84FEA2838DFF84C91D9F8009008FBA3
:1021900009F84FEA284201EB020808F102084FEA69
:1021A000A806DFF83481D8F8008006F5004908FB5E
:1021B00009F84FEAD837A5EB0C084CF2503908FB68
:1021C00009F4B4F1004F04D24FEA4408B8FBF7F029
:1021D00003E0B4FBF7F84FEA48004FEA202808FB79
:1021E00008F140F6DE3801FB08F84FEA2841DFF835
:1021F000EC8000FB08F84FEA284201EB020808F6E1
:10220000CF6800EB2810BDE8F0831CB500F033FB6D
:1022100000208DF804008DF8030001208DF80200E5
:102220001B208DF8010000208DF800006846FEF7A5
:1022300029F81C208DF801006846FEF723F828498C
:102240002848FEF7E5F801212648FEF74DF9FFF78B
:1022500000FDFFF73AFDFFF742FEFFF7BDFD23E06B
:10226000772021490860BC202049087008461E4993
:102270004860012088601E480861032048610220F0
:10228000C86100221748FEF71BFBFFF7EDFD04466F
:10229000224618A11A48FEF709F8194800F069F813
:1022A00040F6C410FFF7C4FCDAE700BFFEE7000009
:1022B0003C000010000026403800001040000010D4
:1022C0000000104030000010180000101400001032
:1022D0001C0000102C0000102000001043E3FFFF42
:1022E000801A060000C00140E8000010060000103F
:1022F0000E0000106779726F3D253664200D0A00CC
:10230000B40000108749096841F01001854A116046
:102310001146096841F0400111608321824A11731E
:102320000D200146C21700EB126212127E4B1A7189
:10233000C21700EB12621212A0EB02221A700321E4
:102340001A461173062111727047014600BF764884
:10235000007D10F0200FFAD0C8B2734A1070704799
:1023600000BF7148007D10F0010FFAD06E48007870
:10237000704700B5034603E013F8010BFFF7E5FFD4
:1023800018780028F8D100BD6649096841F4801129
:10239000644A11601146096841F480011160634983
:1023A000096841F08071624AC2F8C4104FF083019D
:1023B000604A11734FF00D0001464FEAE07200EBE6
:1023C00012624FEA22225B4B1A714FEAE07200EB75
:1023D00012624FEA2222A0EB02221A704FF0030190
:1023E0001A4611734FF0060111727047014600BF83
:1023F0005048007D10F0200FFAD0C8B24D4A10703E
:10240000704700BF4B48007D10F0010FFAD04948DB
:102410000078704700B5034603E013F8010BFFF79F
:10242000E5FF18780028F8D100BD1CB503460A2046
:1024300093FBF0F100FB1130303080B2ADF80600B4
:102440000A2093FBF0F00A2190FBF1F201FB12004D
:10245000303080B2ADF804000A2093FBF0F090FB1E
:10246000F1F090FBF1F201FB1200303080B2ADF8D8
:1024700002000A2093FBF0F090FBF1F090FBF1F0EA
:1024800090FBF1F201FB1200303080B2ADF8000099
:10249000002405E03DF81400FFF757FF601CC4B2AC
:1024A000042CF7DB1CBD1CB503460A2093FBF0F19E
:1024B00000FB1130303080B2ADF806000A2093FBEB
:1024C000F0F00A2190FBF1F201FB1200303080B2F3
:1024D000ADF804000A2093FBF0F090FBF1F090FBC4
:1024E000F1F201FB1200303080B2ADF802000A2098
:1024F00093FBF0F090FBF1F090FBF1F090FBF1F228
:1025000001FB1200303080B2ADF80000002405E07D
:102510003DF81400FFF76AFF601CC4B2042CF7DB1F
:102520001CBD000000C0024000C00040C4C00F40FD
:1025300000C00F400080094013B5044601231A462D
:1025400001A92046FEF721FF1CBD38B50446002036
:10255000009001231A4669462046FEF761FF9DF868
:10256000000038BD70B506460D462C4604E014F850
:10257000011B3046FFF7E0FF20780028F7D170BD3F
:1025800070B504460D4629462046FFF7EBFFE1A152
:102590002046FFF7E7FF70BD2DE9F04105460C46E8
:1025A0000A2094FBF0F100FB1140C6B20A2094FB14
:1025B000F0F00A2190FBF1F201FB1200C7B2642097
:1025C00094FBF0F090FBF1F201FB120000F0FF0829
:1025D00008F13000C1B22846FFF7AEFF07F1300026
:1025E000C1B22846FFF7A8FF06F13000C1B2284665
:1025F000FFF7A2FFBDE8F0812DE9F04705460C4644
:102600000A2094FBF0F100FB1140C6B20A2094FBB3
:10261000F0F00A2190FBF1F201FB1200C7B2642036
:1026200094FBF0F090FBF1F201FB120000F0FF08C8
:102630004FF47A7094FBF0F090FBF1F201FB120082
:1026400000F0FF0942F2107094FBF0F090FBF1F201
:1026500001FB120000F0FF0A0AF13000C1B2284667
:10266000FFF76AFF09F13000C1B22846FFF764FFA7
:1026700008F13000C1B22846FFF75EFF07F13000D5
:10268000C1B22846FFF758FF06F13000C1B2284614
:10269000FFF752FFBDE8F0872DE9F34F83B00C46FA
:1026A0000A20B4FBF0F100FB1145B4FBF0F00A2165
:1026B000B0FBF1F201FB12066420B4FBF0F0B0FBBA
:1026C000F1F201FB12074FF47A70B4FBF0F0B0FBAB
:1026D000F1F201FB120842F21070B4FBF0F0B0FB13
:1026E000F1F201FB12098C48B4FBF0F0B0FBF1F2FF
:1026F00001FB120A8948B4FBF0F0B0FBF1F201FBD8
:10270000120B8748B4FBF0F0B0FBF1F201FB1200B2
:1027100002908448B4FBF0F0B0FBF1F201FB120030
:1027200001908148B4FBF0F0B0FBF1F201FB120024
:10273000009000983030C1B20398FFF7FDFE019879
:102740003030C1B20398FFF7F7FE02983030C1B2C3
:102750000398FFF7F1FE0BF13000C1B20398FFF7C9
:10276000EBFE0AF13000C1B20398FFF7E5FE09F174
:102770003000C1B20398FFF7DFFE08F13000C1B2AC
:102780000398FFF7D9FE07F13000C1B20398FFF7B5
:10279000D3FE06F13000C1B20398FFF7CDFE05F17C
:1027A0003000C1B20398FFF7C7FE05B0BDE8F08F57
:1027B0002DE9F04107460D465CA13846FFF7D2FEF1
:1027C000012600BFB00045FA00F000F00F04092C0C
:1027D00002DD04F1370001E004F13000C1B23846F7
:1027E000FFF7AAFE3000A6F10101CEB2EAD1BDE8A2
:1027F000F0812DE9F04107460D464CA13846FFF720
:10280000B1FE032600BFB00045FA00F000F00F044F
:10281000092C02DD04F1370001E004F13000C1B2FF
:102820003846FFF789FE3000A6F10101CEB2EAD1A9
:10283000BDE8F0812DE9F04107460D463BA1384641
:10284000FFF790FE072600BFB00025FA00F000F069
:102850000F04092C02DD04F1370001E004F130001F
:10286000C1B23846FFF768FE3000A6F10101CEB2D2
:10287000EAD1BDE8F0811FB501208DF802000020EB
:102880008DF804008DF8030002208DF8010000206F
:102890008DF800006846FDF7F5FC03208DF8010077
:1028A0006846FDF7EFFC02A8FEF72FFD4FF4E1307C
:1028B000029002A91E48FEF7B5FB01211C48FEF755
:1028C000A2FCAFF25F301B490860AFF24B301A49EF
:1028D0000860AFF29B3019490860AFF22B1018491D
:1028E0000860AFF2F10017490860AFF2B70016496F
:1028F0000860AFF25B3015490860AFF2033014494D
:102900000860AFF26B2013490860AFF2C130124982
:1029100008601FBD0A0D0000A086010040420F00A4
:102920008096980000E1F50500CA9A3B30780000D7
:1029300000C00040580000105C0000106000001053
:102940007000001074000010780000106400001087
:10295000680000106C0000107C00001010B50A46E2
:10296000202801D2034601E0A0F1200319462028C7
:1029700014D2464B1B684FF0030404FA01F423EA17
:102980000403434CC4F8A831404B1B6802FA01F41D
:1029900043EA04033E4CC4F8A83113E03D4B1B68E6
:1029A0004FF0030404FA01F423EA0403384CC4F89A
:1029B000AC31384B1B6802FA01F443EA0403344C8F
:1029C000C4F8AC3110BD0146202903D20A462F4B72
:1029D000186803E0A1F120022E4B186820FA02F3D8
:1029E00003F00300704770B506462B480468304674
:1029F000FFF7E9FF054635B1012D06D0022D06D0BF
:102A0000032D08D105E0042505E0012503E002259A
:102A100001E0082500BF00BFB4FBF5F4204670BDFF
:102A200001290AD11D4A12681D4B00EA030342EA3C
:102A30000302174BC3F8C4200AE049B9174A1268C9
:102A4000174B23EA000302EA0302114BC3F8C42028
:102A5000704700201349086030BF704704201249B6
:102A6000086008200F49086030BF704704200E49F5
:102A7000086009200B49086030BF704704200A49EC
:102A8000086003200749086030BF7047A8C10F40A5
:102A900000C00F40ACC10F4080000010C4C00F4008
:102AA000DEF7EFEFC0C00F4010ED00E09448006883
:102AB000C0F30160032864D19248006810F003005D
:102AC00006D0012823D002283FD0032858D100E0A7
:102AD00000BF8B480068C0F30E0000F101004FEA10
:102AE0004000894900FB01F08849D1F88810C1F302
:102AF000074101F10101B0FBF1F185480068C0B266
:102B000000F10100B1FBF0F08249086038E07C4838
:102B10000068C0F30E0000F101004FEA40007E495A
:102B200000FB01F07949D1F88810C1F3074101F1A8
:102B30000101B0FBF1F176480068C0B200F101007C
:102B4000B1FBF0F0734908601AE06D480068C0F30B
:102B50000E0000F101004FEA00416C48D0F88800F7
:102B6000C0F3074000F10100B1FBF0F168480068D4
:102B7000C0B200F10100B1FBF0F06649086000BF8F
:102B80002FE06048006810F0030006D0012810D044
:102B9000022819D0032823D100E000BF5C48006858
:102BA000C0B200F101005849B1FBF0F0594908608A
:102BB00016E057480068C0B200F101005649B1FB69
:102BC000F0F0544908600BE051480068C0B200F1D1
:102BD00001004FF40041B1FBF0F04E49086000BF26
:102BE00000BF704720204D4908604848D0F8A00138
:102BF00010F0200F05D000BF4848006810F0400FCB
:102C0000FAD00220424908604FF000003F49C1F865
:102C1000A801434908604FF001003A490860414863
:102C2000414908604FF0AA00404908604FF0550044
:102C300008604FF001003E4908604FF0AA003B4990
:102C400008604FF055003149C1F88C0000BF2C4896
:102C5000006810F0806FFAD00320354908604FF00B
:102C6000AA002A49C1F88C004FF055002F4908608E
:102C700000BF2348006810F0407FFAD023202D4980
:102C800008604FF0AA002149C1F8AC004FF0550090
:102C9000294908604FF00100284908604FF0AA0058
:102CA000254908604FF055001849C1F8AC0000BF35
:102CB0002348006810F4806FFAD003201F49086091
:102CC0004FF0AA001149C1F8AC004FF055001A4965
:102CD000086000BF1A48006810F4407FFAD0194815
:102CE000194908604FF000000849C1F8C80143F2D3
:102CF0003A0008604FF00000144908607047000077
:102D000088C00F400CC10F4000093D0000C00F40BB
:102D100004C10F4080000010001BB700A0C10F408D
:102D2000ACC10F401800010084C00F408CC00F40A0
:102D300080C00F40A4C00F40ACC00F40A0C00F40E7
:102D4000A8C00F40DE872804C4C00F4008ED00E093
:102D500053EA020C00F069802DE9F04B4FF00006B9
:102D6000002B1FBFB3FA83F503FA05F424FA05F626
:102D70005E4012BF1643B2FA82F502FA05F4C5F1BD
:102D800020051EBF22FA05FC44EA0C04203556EA51
:102D9000044C4FEA144418BF641C4FF000084FF075
:102DA0000009904271EB030C39D3002919BFB1FA25
:102DB00081F701FA07F6B0FA80F700FA07F6C7F1D3
:102DC00020071EBF20FA07FC46EA0C062037B6FB98
:102DD000F4FCA7EB0507103F07F01F0BCBF1200613
:102DE0000CFA0BFB2CFA06F644BFB3460026202F44
:102DF000A4BF5E464FF0000B5BEA060C08BF4FF025
:102E0000010B19EB0B09ABFB027C48EB0608C01B5E
:102E100006FB02CC0BFB03CC71EB0C01C1E70B46AC
:102E2000024641464846BDE8F08B13B54FF000001E
:102E30004FF00001AFF30080BDE81C40704770B553
:102E4000044685690068C10601D5302600E02026C9
:102E5000C00708D070BDD4E9012130469047206AF0
:102E600000F1010020626D1EF5D570BD70B50446FD
:102E700085690078C00708D170BDD4E90121202000
:102E80009047206A00F1010020626D1EF5D570BDEB
:102E90002DE9F0410646002410687529314616A533
:102EA00011D0AFF30080002803DAC0F1000013A5B1
:102EB00007E031688A0701D511A502E0490704D56A
:102EC00010A5012401E0AFF3008000210A2306F1E0
:102ED000240707E0B0FBF3F203FB12003030785414
:102EE0001046491C0028F5D123462A463046BDE845
:102EF000F04100F090B80000000000002D0000003C
:102F00002B000000200000002DE9F0474FF0000AE0
:102F100089460446C0F820A02046E168884700287A
:102F200076D0252806D0D4E901219047206A401C9C
:102F30002062F1E7E168204600258847C4F81CA01C
:102F400006460027C4F818A02A2E09D0304600F003
:102F500083F938B304EB8708303EC8F8186019E0ED
:102F600059F8041B204604EB87029161E168884709
:102F7000012F064618D1E069002820DA25F0200547
:102F80001DE0D8F8180000EB800006EB4000303858
:102F9000C8F818002046E1688847064600F05CF94A
:102FA0000028EED1012F0AD02E2E08D12046E1684C
:102FB00088477F1C0646022F45F02005C4DBA06928
:102FC000002803DA404245F00105A061E80701D07E
:102FD00025F01005B6B1A6F14100192802D8203617
:102FE00045F400654A463146204625604D46FDF7CA
:102FF000A7F858B1012806D0ED1D25F0070000F113
:10300000080989E704E005F1040985E730468AE705
:10301000206ABDE8F0872DE9F0470D4699469246B3
:10302000044600F124080168880604D5E06921F00F
:103030001001216000E00120A84202DDA0EB05079D
:1030400000E00027A16907EB050202EB0900A1EBF4
:103050000000A0612078C00602D42046FFF7EFFEF2
:10306000002608E0D4E901211AF806009047206AFA
:10307000401C761C20624E45F4DB2078C0060AD541
:103080002046FFF7DCFE06E0D4E90121302090471E
:10309000206A401C2062381EA7F10107F4DC07E01B
:1030A000D4E9012118F805009047206A401C2062ED
:1030B000281EA5F10105F3DC2046FFF7D7FE207896
:1030C000000602D50220BDE8F0870120FBE70000E2
:1030D00001694A1C02610878704700B58FB0CDE9DC
:1030E00001310021059105497944CDE903101146CC
:1030F0006846FFF709FF0FB000BD0000E5FFFFFFC6
:103100000048704714010010004870471401001077
:103110007546FFF7F9FFAE4605006946534620F0B5
:103120000700854618B020B5FDF730F8BDE820400F
:103130004FF000064FF000074FF000084FF0000B73
:1031400021F00701AC46ACE8C009ACE8C009ACE826
:10315000C009ACE8C0098D4670470446AFF3008053
:103160002046FCF7FFFF000001491820ABBEFEE738
:1031700026000200490050EAC12018BF04204A0D71
:1031800018BF40F0010040F2FF72B2EB515F08BF80
:1031900040F00200012808BF052070472DE9F041EA
:1031A0004F1E00EBC7010446D1E9000115461E463B
:1031B00037F006020DD02A46334601F001F87F1E93
:1031C00004EBC703D3E9002300F064FD37F00602E7
:1031D000F1D1022F25D0042F13D0062F18BFBDE840
:1031E000F0812A46334600F0EBFFD4E90A2300F0D1
:1031F00051FD2A46334600F0E3FFD4E9082300F0EE
:1032000049FD2A46334600F0DBFFD4E9062300F0EF
:1032100041FD2A46334600F0D3FFD4E9042300F0F1
:1032200039FD2A46334600F0CBFFD4E9022300F0F3
:1032300031FD2A46334600F0C3FFD4E90023BDE840
:10324000F04100F027BD0000024A0020110701F004
:10325000F9BA000001FDFFFF30380A2801D2012031
:1032600070470020704700002DE9F04D16460F46CC
:103270000546020094B01C4621F0004123F00040B6
:1032800014BF4FF0010C4FF0000C0CEB470CFE4B41
:103290000CEB03084FEA630CE0452DD35FEA060808
:1032A00018BF4FF0010808EB44089844F74B9845C5
:1032B00022D3F74B50EA060C02D09F4205D14AB9FF
:1032C00014B000201946BDE8F08D002A08BF4FF069
:1032D000000C01D04FF0010C0CEB470313F5001F5D
:1032E0000AD8002E14BF4FF0010C4FF0000C0CEB6D
:1032F000440313F5001F08D914B03246234628466C
:103300003946BDE8F04D00F0C5BCDFF888B34FF09A
:10331000000A002FB8BF584523DADF4B9842A8BFF8
:103320004FF0020A1DDADA4B83421ADCDB4B03EB67
:103330002053142B08DDC3F1340C26FA0CF303FAE6
:103340000CFCB4450DD108E05EB9C3F1140C20FAB1
:103350000CF303FA0CFC844503D103F00103C3F121
:10336000020A51EA020321D1002C1FDA002F18BFF4
:10337000BAF1020F02D0BAF1010F0BD00220FCF714
:10338000B1FF14B00022BDE8F04D13461046C0490D
:1033900000F03CBD0220FCF7A5FF14B02A463B46D6
:1033A000BDE8F04D0020BA4900F030BD33006DD1CA
:1033B000584525D107F1804010F5801001BF002A43
:1033C0000020B34914B008BFBDE8F08DB048884272
:1033D00007DC002CA1BF1846214614B0BDE8F08DD3
:1033E00007E0002CBFBF184684F0004114B0BDE8D0
:1033F000F08DAB497944D1E9000114B0BDE8F08DFE
:10340000DFF88CC2604526D1002C1FDA19B159456E
:1034100013D1DAB90AE0002A40F0DA829D4A39462F
:1034200014B0002062F31E01BDE8F08D0020394683
:1034300014B060F31E01BDE8F08D07DA14B03B460E
:10344000BDE8F04D0020614600F0E0BC14B010462D
:103450003946BDE8F08D594518DAB4F1804F0DD0EA
:10346000A4F10053B3F1FF5310D13B1E0EDB14B097
:103470001046BDE8F04D194600F0E6BB3B4614B0DF
:103480001046BDE8F04D194600F09ABE27F0004303
:10349000A2BBE1B1594538D1002F06DD002CA1BFF8
:1034A0000020594614B0BDE8F08D002F01DD002C3E
:1034B0001FDB002F16DA002C14DBBAF1010F4FF0DE
:1034C000000014BF7349774914B0BDE8F08DBAF11C
:1034D000020F18BF002F0CD0BAF1010F09D1002F35
:1034E00007DA0CE0002FB8BF002C0EDABAF1010F9A
:1034F00005D0002014B00146BDE8F08D05E014B001
:1035000000204FF00041BDE8F08D4FF0010C0CEBB6
:10351000E7720D9252EA0A020BD0634A90427DDDB7
:10352000624B634A984216DD8A420EDB002C1CDB9C
:103530002CE00120FCF7D6FE14B00022BDE8F04DCF
:1035400013461046114600F061BC5148884202DC27
:10355000002C0ADC1AE0914202DA002C16DA04E0B0
:103560004B4B99421EDD002C10DD0220FCF7BAFE09
:1035700040F2013200204FF0E04101F063F9454A8A
:1035800014B061F31E021146BDE8F08D0220FCF775
:10359000A9FEFFF759FE3E4A14B061F31E02114620
:1035A000BDE8F08D00222846394601F02FF8054687
:1035B00088466FF0010201F045F94FF055323D4B5E
:1035C00000F032FF2A46434600F0FAFD00223A4B53
:1035D00000F02AFF07468B462A4643461046194606
:1035E00000F0EEFD3A465B4600F0EAFD09910C90D2
:1035F0004FF0C042314B2846414600F0E1FD0746FE
:103600008B462F4A2D4B09990C9800F0D9FDCDE936
:1036100001102C4A2C4B2846414600E019E000F0EE
:10362000CFFDDDE9013200F0F1FF3A465B4605913E
:10363000089000F02FFB002588463A465B46284656
:1036400000F0E4FF059B089A00F0EEFE024600F051
:1036500076B90020B1F5801F07DA352228461946D1
:1036600001F0F0F805466FF0340000EB2150A0F2B5
:10367000FF300190C1F3130040F07F6141F04051F1
:1036800002911249884223E0FFFF1F00FFFF0F0055
:103690000000F03F0000F07F0000404301FCFFFF0E
:1036A000F01500000000F0FF0000E0410000F043D2
:1036B000FFFFEF3F5555D53F0000E03F4715F73F6F
:1036C000FE822B6544DF5DF80BAE543E8E980300FE
:1036D000D8BF4FF0000B0EDDFE498142C8BF4FF04E
:1036E000010B08DC01984FF0000B401C0190029880
:1036F000A0F580100290F8480299784400EBCB00C6
:103700000B911090D0E90023284600F07FFF009035
:1037100010980791D0E9002328460B9900F0BAFAD7
:1037200002460B460020ED4900F070FB05910B4668
:10373000024608900799009800F042FD0690E8487C
:10374000884600277844029900680E904FF0005098
:1037500040EA610000EB8B4000F5002110980291D7
:10376000D0E900230E9800F051FF2A460B9B00F091
:103770005BFE3A46434600F023FD05460B91384672
:103780004146029B0E9A00F01BFD079B009A00F039
:103790004BFE2A460B9B00F039FF059B089A00F070
:1037A0000FFD0B911090069A43461046194600F003
:1037B00007FD05460246CB480B460091062178449A
:1037C000FFF7ECFC009B2A46029108901046194630
:1037D00000F0F6FC029B089A00F0F2FC0546059109
:1037E000434638461946069A00F054FA0B9B109A45
:1037F00000F0E6FC2A46059B00F04CFA3A464346A8
:10380000059108901046194600F0DAFC0022B64BEC
:1038100000910C9000F03EFA059B089A00F03AFAED
:103820000D463A46B04B384600F0F0FE009B0C9A2D
:1038300000F0ECFE059B089A00F0F6FD11913A4667
:103840000C902B461046414600F0BAFC07910090C0
:103850004346069A11990C9800F0B2FC80460391F9
:103860002B463A460B99109800F0AAFC4246039B5F
:1038700000F010FA059180460B4602460799009821
:1038800000F008FA00200F460546079B009A00F05A
:10389000BDFE4246059B00F0C7FD804609914FF0F2
:1038A0006042924B2846394600F08AFC0091029013
:1038B0008F4A8E4B4046099900F082FC8046039166
:1038C0008C4A8D4B2846394600F07AFC4246039BD1
:1038D00000F0E0F9894A7A4402EBCB03D3E90023F4
:1038E00000F0D8F906900391019800F016FC074605
:1038F000DDE902030591069A009900F0CBF9804AB0
:103900007A4402EBCB0BDBE9002300F0C3F93A4623
:10391000059B00F0BFF9002588463A462846059BDE
:1039200000F074FEDBE9002300F070FE009B029AB9
:1039300000F06CFE039B069A00F076FD0246002024
:1039400006900D98654FAAF10103184301D16D4F00
:10395000069000200B4600903046214600F030FCD7
:1039600082468B46234630461946009A00F04EFEAA
:103970002A46434600F024FC52465B4600F08AF992
:1039800006468A462A4643462146009800F018FC1F
:1039900004460D463246534600F07CF95A4A8B469F
:1039A000914226DBABEB020353EA000210D1224620
:1039B0002B4600F02BFE80460591544A544B30466E
:1039C000514600F067F94246059B00F0F7FC30D203
:1039D0000220FCF787FC40F2013200204FF0E0416A
:1039E00000F030FF0A46394614B062F31E01BDE80C
:1039F000F08D484B2BF000429A421AD3464A0BEB0B
:103A0000020353EA000208D122462B4600F0FEFDD5
:103A10003246534600F0D2FC0BD80220FCF762FC81
:103A2000FFF712FC0A46394614B062F31E01BDE8E6
:103A3000F08D2BF000403949394A01EB20514FF00D
:103A40000008824223DA481C4FF4801121FA00F06A
:103A50005844C0F30A51334AA1F2FF317A44324B41
:103A60001268CB4020EA0303C0F3130040F4801C2B
:103A7000C1F114002CFA00F8BBF1000FB8BFC8F177
:103A800000082046294600F0C1FD04460D462246A6
:103A90002B463046514600F0FDF84FF0000B5A46D9
:103AA000224B5846059100F08BFB00900791204A6D
:103AB000204B5846059900F083FB04910290224662
:103AC0002B465846059900F0A1FD3246534600F0BA
:103AD000ABFC31E07AB60B00621200000000F03F50
:103AE000A0120000CE1100000000084009C7EE3F00
:103AF000FD033ADCF5015B14E02F3EBEA61000008A
:103B00006C1000000000F0BF00009040FE822B65AA
:103B10004715973C00CC904000346F3F01FCFFFFFD
:103B20000000E03F880F0000FFFF0F00432EE63F3C
:103B3000396CA80C615C20BE3F4A404B00F040FB52
:103B4000049B029A00F0A6F806468A46079B009A54
:103B500000F0A0F804460D46079B009A00F056FDC1
:103B60003246534600F060FC064622462B46099139
:103B70001046194600F024FB8346024630488A4628
:103B80000B4605217844FFF709FB5A46534600F0DF
:103B900017FB22462B4600F047FC82468B463246F6
:103BA00020462946099B00F00BFB3246099B00F09A
:103BB00071F80591089000224FF080435046594615
:103BC00000F024FD0646009152465B4620462946F9
:103BD00000F0F6FA3246009B00F018F9059B089AAF
:103BE00000F014FD22462B4600F010FD0022154B7C
:103BF00000F01AFC0D46044601EB08510815002898
:103C000010DC42462046294600F01CFEFFF7B2FABF
:103C1000042808BFFFF718FB42462046294600F05B
:103C200011FE044606980B4614B022463946BDE8FC
:103C3000F04D00F0C5BA0000EF39FAFE422EE63F23
:103C4000380E00000000F03F2DE9F04106460F4617
:103C500000F0F6FB04000D4618BF0120284320F0B9
:103C60000040C0F17F6000F1E040C00F0ED0301C7A
:103C700018BF0120384320F00040C0F17F6000F100
:103C8000E040C00F04BF0120FCF72CFB2046294672
:103C9000BDE8F08110B591EA030F48BF83F00043FF
:103CA00000F1BC84841A71EB030C05D2121943EBAA
:103CB0000C03001B61EB0C01DFF824E14FEA115407
:103CC000A4EB135C1EEA430F18BF9EEA445F73D057
:103CD00023EA0E03DCF1200E21EA045143F48013A1
:103CE00032D322FA0CFE10EB0E0023FA0CFE41EB4D
:103CF0000E01CCF1200E03FA0EFE10EB0E0051F176
:103D00000001B1F5801FCCF1200E32D201EB04513D
:103D100012FA0EF2BDE8104058BF7047401C38BF81
:103D20005FEA420218BF7047002814BF20F001006C
:103D300041F100014FEA410313F5001F38BF7047FE
:103D4000A1F1C04100F034BB012A43EB0302ACF106
:103D5000200CDCF11F0E32BF4FF0000E23FA0CF3E3
:103D600010EB030041EB0451B4EB115FD0D0A1EB99
:103D7000045101F5801149085FEA300001EB04515C
:103D80000ED350F1000038BF12FA0EFE08D1BDE884
:103D90001040C9E7401C38BF5FEA4202CAD1C3E7FE
:103DA000BDE810404FEA410313F5001F38BF7047CC
:103DB000A1F1C04100F0FCBA9EEA445F08D011EACC
:103DC0005E0FBDE8104004BF01F0004100207047C5
:103DD000BDE8104070B500F09DFA00BF64FBBE3E28
:103DE0000000E0FF02494FF0000000F0F9BC00BF06
:103DF0000000F87F491058BFC1F140415B1058BF27
:103E0000C3F140438B42EFF3008070472DE9C0417E
:103E100030B4DFF8A0C23CEA111418BF3CEA131416
:103E200000F0EC8081EA03051CEA111444EAD57421
:103E300018BF1CEA131500F0C780A4EB05044FF06F
:103E4000004545EAC12145EAC32341EA505143EA0E
:103E5000525304F17F74994204F500344FEAC020B4
:103E60004FEAC22208BF904200F09C804FEA1365DF
:103E70000FF24016765D4FEA134506FB05F7C7F1D2
:103E8000807706FB07F74FEAD737A7FB0368764230
:103E9000C8F58038A7FB06CE38BFA8F1010807FB9C
:103EA00008E64FF0000EA6FB028CE6FB03CEDCF129
:103EB000000CCEF1004E38BFAEF1010EA6FB0C583F
:103EC0004FF000074FF00005E6FB0E87A1FB08C688
:103ED000A0FB07CE16EB0E0645F10005E1FB0765DA
:103EE00015F1E04E7EBFA4F580345FEA46066D41D1
:103EF00016F1800745F100054FEA17274FEA0666DD
:103F000047EA0567A6F1DE46B6F1805F4FEA152560
:103F10001FD9384624F0010C05EBC471BCF1FE6FCB
:103F200001EB0C1102D8F0BCBDE8008124425CBF5B
:103F300001F5801E9EEAC47F02D4F0BCBDE800817A
:103F4000244238D4F0BCA1F1C041BDE8004100F0EA
:103F50002FBA4FEAD22242EA43524FEAD323A7FBB9
:103F600002864FEAD02040EA415007FB03661EEA72
:103F70000E0F4FEAD12105FB026658BFA6EB005693
:103F8000B6EB00564FEA520E4EEAC37E18EB0E0E09
:103F900056EB530EBDD518EB02085E417F1C55F160
:103FA0000005B6E74FF480154FF000074FF000060C
:103FB0004FF00008ADE7F0BC4FF0000001F1C04148
:103FC00001F00041BDE8008111EA0C1F0CEA131555
:103FD00000D00CE013EA0C1F00F025804FF0000029
:103FE000F0BC81EA030101F00041BDE80081F0BCB2
:103FF000BDE8004181EA030100F0DAB9F0BCBDE898
:10400000004170B500F086F9097EFC3E00F007B86B
:1040100081EA03014FF0000001F00041704781EA9E
:10402000030100F0C5B9F0BCBDE800414FF000004D
:1040300021497047FFFDFBF9F7F5F4F2F0EEEDEBE7
:10404000E9E8E6E4E3E1E0DEDDDBDAD8D7D5D4D396
:10405000D1D0CFCDCCCBCAC8C7C6C5C4C2C1C0BFE2
:10406000BEBDBCBBBAB9B8B7B6B5B4B3B2B1B0AFE8
:10407000AEADACABAAA9A8A8A7A6A5A4A3A3A2A1CC
:10408000A09F9F9E9D9C9C9B9A9999989797969587
:1040900095949393929191908F8F8E8E8D8C8C8B23
:1040A0008B8A8989888887878685858484838382AB
:1040B000828181800000FF070000F87F4FEA410302
:1040C0004FEA5353A3F58063D3F11E03C8BFD3F166
:1040D000210C0CDD4FF0004242EAC12242EA50526C
:1040E00032FA03FC8CEAE17CACEBE1707047102BF8
:1040F000C4BF0020704703F5787CBCF1FF3F04D0BB
:104100006FF0004282EA2100704770B500F002F9BA
:104110004992248000207047F2E710F0004248BF27
:104120004042B0FA80F310FA03F10AD0C3F11D0344
:1041300003F580634FEA415002EB035202EBD121B9
:1041400070474FF00000704751EA030C17D41CF57C
:10415000801F58BFBCF5801F00F10680994218BF30
:10416000704708BF9042704707D711F5801F58BFAE
:1041700013F5801F19D499427047894270471CF586
:10418000801F08D5BCF5801FF7D58B4218BF70473C
:1041900008BF824270474FF4001C1CEB410F38BF30
:1041A0001CEB430F01D28B42704770B500F0B2F8A0
:1041B000922449004FF000514FF08053FFF71ABE90
:1041C000DFF848C170B51CEA111E1EBF1CEA1315AA
:1041D0009EEA0C0F95EA0C0F00F06F8081EA030451
:1041E00023EA4C134EEAD47E21EA4C1141F48011AB
:1041F00043F48013AE44A1FB024CA0FB0365AEF177
:104200007F7E361955EB0C05A1FB034C4CF10003E6
:10421000A0FB021C16EB0C06654153F1000309429A
:1042200018BF46F0010613F4007F0BD14FEA0331AB
:104230004FEA0530340341EA155140EA16506FF059
:1042400003020AE04FEAC3214FEAC520F40241EA23
:10425000555140EA56506FF0020202EB2E4201EB3C
:10426000025585EACE710AD05FEA440C18BF24F0EB
:10427000004450F1000041F1000120EAD47040F206
:10428000FE7C624500D270BDA84214BF4FF080444E
:104290004FF04044002E08BF0024BEF1806FA8BF3D
:1042A000A1F1C041BDE8704080F282804FF0000073
:1042B00001F1C04101F0004170479EEA0C0F0CEA89
:1042C000131518BF95EA0C0F06D04FF0000081EAD5
:1042D000030E0EF0004170BD00F01CF88900013E95
:1042E00000F007B800F009B84FEA430C5FEA5C5CE5
:1042F00008D081EA030100F05BB84FEA410C5FEAA5
:104300005C5CF6D14FF00000014970470000FF07E8
:104310000000F87F0EF1020E2EF0030E5EF8046B23
:10432000364205D4012A43EB030515F5001F12D8C8
:10433000012841EB010C1CF5001F0CD80ED14FEAEF
:10434000D17C15F5001F0CEB4C0C0CF1020C08BFD6
:104350004CEBD37C04E04FF0080C01E04FEAD37C37
:104360000CEB4C0526FA05F606F00706B6F1040C30
:1043700006D20EEB860CBDE870404CF0010C604795
:10438000DFE80CF0090B02024FF000414FF0000093
:10439000A1F5002170BD19461046012851EB01041A
:1043A00018BFD4F5001484BF002001F0004170BD97
:1043B0000808A0F500114FEA3101704753EA010CDB
:1043C00017D41CF5801F58BFBCF5801F00F1068074
:1043D0008B4218BF704708BF8242704707D713F55A
:1043E000801F58BF11F5801F19D48B4270479B4224
:1043F00070471CF5801F08D5BCF5801FF7D5994282
:1044000018BF704708BF904270474FF4001C1CEB68
:10441000430F38BF1CEB410F01D2994270470FB4D4
:104420000CBC03BCFFF7C1BE91EA030F10B581F0CD
:1044300000413FF537AC83F0004300F0EFB80000D7
:104440002DE9F04101F5801CBCF5001FC0F2C380CE
:104450004FEA115C21EA0C510CF1FD0C41F4801182
:104460005FEA5C0C0CF5C07C01D3400049413DA4DF
:10447000890241EA905187028E0E0A0CA45D04FB6A
:1044800004F602FB06F6C6F14046A4FB0662F60DF2
:1044900046EA422606FB06F4A4FB01235242C3F17E
:1044A000404338BF5B1EA6FB02420024E6FB032408
:1044B000D20B42EA4446A6FB0623A1FB02E2A3FB81
:1044C00007E4A4184FF0000252F10002E3FB01429E
:1044D0006442C2F1404E38BFAEF1010EA6FB042388
:1044E0004FF00002E6FB0E32A2FB03464FF0000441
:1044F000B61954F10004E2FB0264A1FB06E6A4FB3A
:1045000007E816EB08064FF0000858F10008E4FB36
:1045100001687642C8F1405838BFA8F10108A2FBF3
:1045200006E4A3FB08E52D194FF0000454F1000444
:10453000E2FB0854A1FB05E6A7FB04E818EB06081C
:104540004FF0000656F10006E1FB048618F1200545
:1045500056F10006A809A8F11B08B10908F03F08A8
:10456000B8F10A0F40EA86601CD901EB0C51BDE896
:10457000F08100BFFCF5EEE8E2DDD8D3CFCBC7C3B6
:10458000C0BDB9B6B4B1AEACA9A7A5A3A19F9D9B70
:104590009A9896959392908F8D8C8B898887868533
:1045A00084838281A0FB006800FB01F208EB4208D3
:1045B000B8EB872807D5341858EB0104D5D5401C33
:1045C00051F10001D1E7341A78EB0104CDD4401E3B
:1045D00071F10001C9E75FEA4C0C5FEA9C5C0DD108
:1045E00005D34FF0000001F00041BDE8F081BDE8C7
:1045F000F04170B5FFF78EFE6DDBFFBEBDE8F04108
:104600004FF00000004970470000F87F10B591EAB4
:10461000030F48BF83F000433FF544AB841A71EBAE
:10462000030C07D212198CF0004C43EB0C03001B57
:1046300061EB0C01DFF8A4E14FEA1154A4EB135C29
:104640001EEA430F18BF9EEA445F00F0B08023EAE1
:104650006E03524221EA0451C3EB6E0338BF5B1E66
:10466000DCF1200E25D322FA0CFE10EB0E0043FAEB
:104670000CFE41EB0E01CCF1200E03FA0EFE10EB06
:104680000E0051F10001CCF1200E29D412FA0EF2E5
:1046900001EB0451BDE8104058BF7047401C1CBFDF
:1046A000B2F1004F704700280CBF491C20F00100F8
:1046B000704712EB020E43EB030218BF4FF0010EDE
:1046C0004EEA4202ACF1200CDCF11E0E54D943FA42
:1046D0000CFE10EB0E0051F1FF31CCF11E0ED5D5C2
:1046E0000EF1010E12FA0EFE404141EB010101EB09
:1046F000445C5FEA5C5C10D910EBDE7001EB0451A6
:1047000038BFBEF1004FBDE8104018BF7047002809
:104710000CBF491C20F00100704730D24FEAD42C66
:1047200011F5001124F400641BD0B1FA81F20B3AA8
:10473000A41AA41ED2F12003914030FA03F31943C6
:10474000904001EBCC71002C01EB0451BDE810400E
:10475000A8BF704701F1C0414FF0000001F00041D7
:104760007047B0FA80F310FA03F100D110BDE41ADB
:10477000173C4805C90AE4E701EB045110BD491094
:1047800001EB0451BDE810404FEA300002E04FF069
:10479000000170474A0008BF0042F8D0B2F5001F80
:1047A00028BF704701F000414FF0000070479EEABB
:1047B000445F07D011EA5E0FBDE8104004BF00213E
:1047C00000207047BDE8104070B5FFF7A3FD00BFA3
:1047D00040DFF63E83F00041104670470000E0FFE6
:1047E0000CF00F03092B08BF082000F059800A2B9A
:1047F0000BD0082B18BF704708BF1CF0400F0AD021
:104800004FF000004FF0000170471CF0400F18BF40
:104810004FF0004070471CF0100F08D020F070439C
:1048200000F07F4242EAD3014FEA4370704700F044
:10483000604021F07F4242EA000201F07F4040EAFE
:10484000727070474FF0FF0C4CF4E06C1CEA11538F
:104850001CBF9CEA030C9445C2BFDA4201EB025133
:104860007047002B0DD0BCF1000F0FD0002A01F0D3
:104870000041A4BF41F0E04141F07F614FF00000F2
:10488000704701F000414FF00000704750EA0133DB
:104890004FF09B0C18BF4CF0806C7FF4A3AA7047BC
:1048A0001CF4801F11D01CF4E02F03D06FEACC3130
:1048B000490070474FF04050EFF3008222F0704201
:1048C00042EA000282F3008870474FF00000704710
:1048D0002E2E5C2E2E5C2E2E5C2E2E5C6C70633188
:1048E0003778782E636D7369732E6472697665729A
:1048F0002E6C6962726172795C447269766572735A
:104900005C736F757263655C6C7063313778785F68
:104910006932632E630000002E2E5C2E2E5C2E2E3C
:104920005C2E2E5C6C7063313778782E636D736902
:10493000732E6472697665722E6C69627261727927
:104940005C447269766572735C736F757263655CE3
:104950006C7063313778785F756172742E63000014
:10496000000000000000F03F000000000000F83FE1
:1049700000000000000000000000004003B8E23F1B
:10498000000000000000000006D0CF43EBFD4C3ECD
:10499000033333333333E33FFFAB6FDBB66DDB3FC2
:1049A0004D268F515555D53F01411DA96074D13F0A
:1049B00065DBC9934A86CD3FEF4E454A287ECA3F04
:1049C0003E5555555555C53F93BDBE166CC166BF86
:1049D0002CDE25AF6A56113FF16BD2C541BDBBBE7F
:1049E000D0A4BE726937663E0000000000000000DF
:1049F000104A0000000000108400000008010000C0
:104A0000944A000084000010F40200002401000019
:104A10000000000000000000000000000000000096
:104A20000000000000000000000000000000000086
:104A30000000000000000000000000000000000076
:104A40000000000000000000000000000000000066
:104A50000000000000000000000000000000000056
:104A60000000000000000000000000000000000046
:104A70000000000000000000000000000000000036
:104A80000000000000000000000000000000000026
:044A900000E1F50547
:040000050000017185
:00000001FF
